:020000040800F2
:1000000000000220E91901080D1401081314010869
:10001000191401081F14010825140108000000002C
:100020000000000000000000000000002B14010888
:100030003914010800000000471401085514010894
:10004000391A0108391A0108391A0108391A010840
:10005000391A0108391A0108391A0108391A010830
:10006000391A0108391A0108391A0108391A010820
:10007000391A0108391A0108391A0108391A010810
:10008000391A0108391A0108391A0108391A010800
:10009000391A0108391A0108391A0108391A0108F0
:1000A000391A0108391A0108391A0108391A0108E0
:1000B000391A0108391A0108391A0108391A0108D0
:1000C000391A0108391A0108391A0108391A0108C0
:1000D000391A0108391A0108391A0108391A0108B0
:1000E000391A0108391A0108391A0108391A0108A0
:1000F000391A0108391A0108391A0108391A010890
:10010000391A0108391A0108391A0108391A01087F
:10011000391A0108391A0108391A0108391A01086F
:10012000391A0108391A0108391A0108391A01085F
:10013000391A0108391A0108391A0108391A01084F
:10014000391A0108391A0108391A0108391A01083F
:10015000391A0108391A0108391A0108391A01082F
:10016000391A0108391A0108391A0108391A01081F
:10017000391A0108391A0108391A0108000000006B
:08018000391A0108391A0108BF
:1001900010B5054C237833B9044B13B10448AFF3C1
:1001A00000800123237010BDFC010020000000002E
:1001B000A8B1010808B5034B1BB103490348AFF3CD
:1001C000008008BD0000000000020020A8B1010866
:1001D000034613F8012B002AFBD1181A0138704787
:1001E00001F0FF01102A2BDB10F0070F08D010F8E8
:1001F000013B013A8B422DD010F0070F42B3F6D1EC
:10020000F0B441EA012141EA014122F007047FF004
:1002100000070023F0E80256083C85EA010586EA5B
:10022000010685FA47F5A3FA87F586FA47F6A5FA97
:1002300087F68EB9EED1F0BC01F0FF0102F00702A3
:1002400032B110F8013B013A83EA010313B1F8D14E
:100250000020704701387047002D06BF354603382F
:10026000073815F0010F07D1013015F4807F02BF68
:10027000013015F4C03F0130F0BC0138704700BFB9
:1002800081F0004102E000BF83F0004330B54FEA47
:1002900041044FEA430594EA050F08BF90EA020FB4
:1002A0001FBF54EA000C55EA020C7FEA645C7FEA47
:1002B000655C00F0E2804FEA5454D4EB5555B8BF6A
:1002C0006D420CDD2C4480EA020281EA030382EADB
:1002D000000083EA010180EA020281EA0303362D6D
:1002E00088BF30BD11F0004F4FEA01314FF4801C40
:1002F0004CEA113102D0404261EB410113F0004F52
:100300004FEA03334CEA133302D0524263EB430308
:1003100094EA050F00F0A780A4F10104D5F1200EA6
:100320000DDB02FA0EFC22FA05F2801841F1000101
:1003300003FA0EF2801843FA05F359410EE0A5F1D5
:1003400020050EF1200E012A03FA0EFC28BF4CF006
:10035000020C43FA05F3C01851EBE37101F00045BC
:1003600007D54FF0000EDCF1000C7EEB00006EEBC9
:100370000101B1F5801F1BD3B1F5001F0CD3490853
:100380005FEA30004FEA3C0C04F101044FEA4452AA
:1003900012F5800F80F09A80BCF1004F08BF5FEA31
:1003A000500C50F1000041EB045141EA050130BD11
:1003B0005FEA4C0C404141EB0101013C28BFB1F523
:1003C000801FE9D291F0000F04BF01460020B1FA6E
:1003D00081F308BF2033A3F10B03B3F120020CDA41
:1003E0000C3208DD02F1140CC2F10C0201FA0CF01F
:1003F00021FA02F10CE002F11402D8BFC2F1200C84
:1004000001FA02F120FA0CFCDCBF41EA0C01904039
:10041000E41AA2BF01EB0451294330BD6FEA040482
:100420001F3C1CDA0C340EDC04F11404C4F120026D
:1004300020FA04F001FA02F340EA030021FA04F37F
:1004400045EA030130BDC4F10C04C4F1200220FAD6
:1004500002F001FA04F340EA0300294630BD21FA14
:1004600004F0294630BD94F0000F83F4801306BFDA
:1004700081F480110134013D4EE77FEA645C18BFCE
:100480007FEA655C29D094EA050F08BF90EA020F65
:1004900005D054EA000C04BF1946104630BD91EA5D
:1004A000030F1EBF0021002030BD5FEA545C05D160
:1004B0004000494128BF41F0004130BD14F580049F
:1004C0003CBF01F5801130BD01F0004545F0FE4113
:1004D00041F470014FF0000030BD7FEA645C1ABF48
:1004E000194610467FEA655C1CBF0B46024650EA7F
:1004F000013406BF52EA033591EA030F41F40021AB
:1005000030BD00BF90F0000F04BF0021704730B530
:100510004FF4806404F132044FF000054FF0000105
:1005200050E700BF90F0000F04BF0021704730B5C6
:100530004FF4806404F1320410F0004548BF40429B
:100540004FF000013EE700BF42004FEAE2014FEAF0
:1005500031014FEA02701FBF12F07F4393F07F4FCB
:1005600081F06051704732F07F4208BF704793F0CE
:100570007F4F04BF41F40021704730B54FF46074E1
:1005800001F0004521F000411CE700BF50EA0102E4
:1005900008BF704730B54FF000050AE050EA01028D
:1005A00008BF704730B511F0004502D5404261EBFD
:1005B00041014FF4806404F132045FEA915C3FF43E
:1005C000D8AE4FF003025FEADC0C18BF03325FEADB
:1005D000DC0C18BF033202EBDC02C2F1200300FA8C
:1005E00003FC20FA02F001FA03FE40EA0E0021FAB1
:1005F00002F11444BDE600BF70B54FF0FF0C4CF49F
:10060000E06C1CEA11541DBF1CEA135594EA0C0F50
:1006100095EA0C0F00F0DEF82C4481EA030621EA8B
:100620004C5123EA4C5350EA013518BF52EA0335C6
:1006300041F4801143F4801338D0A0FB02CE4FF078
:100640000005E1FB02E506F00042E0FB03E54FF0A8
:100650000006E1FB03569CF0000F18BF4EF0010EA0
:10066000A4F1FF04B6F5007F64F5407404D25FEA9C
:100670004E0E6D4146EB060642EAC62141EA55514F
:100680004FEAC52040EA5E504FEACE2EB4F1FD0C91
:1006900088BFBCF5E06F1ED8BEF1004F08BF5FEA0F
:1006A000500E50F1000041EB045170BD06F00046C1
:1006B00046EA010140EA020081EA0301B4EB5C046E
:1006C000C2BFD4EB0C0541EA045170BD41F4801166
:1006D0004FF0000E013C00F3AB8014F1360FDEBF8B
:1006E000002001F0004170BDC4F10004203C35DA67
:1006F0000C341BDC04F11404C4F1200500FA05F3EA
:1007000020FA04F001FA05F240EA020001F000428A
:1007100021F0004110EBD37021FA04F642EB060100
:100720005EEA430E08BF20EAD37070BDC4F10C042A
:10073000C4F1200500FA04F320FA05F001FA04F2EE
:1007400040EA020001F0004110EBD37041F10001DA
:100750005EEA430E08BF20EAD37070BDC4F12005E5
:1007600000FA05F24EEA020E20FA04F301FA05F24D
:1007700043EA020321FA04F001F0004121FA04F2F5
:1007800020EA020000EBD3705EEA430E08BF20EAC5
:10079000D37070BD94F0000F0FD101F000464000FF
:1007A00041EB010111F4801F08BF013CF7D041EA81
:1007B000060195F0000F18BF704703F00046520085
:1007C00043EB030313F4801F08BF013DF7D043EA56
:1007D0000603704794EA0C0F0CEA135518BF95EA0C
:1007E0000C0F0CD050EA410618BF52EA4306D1D193
:1007F00081EA030101F000414FF0000070BD50EAB2
:10080000410606BF1046194652EA430619D094EA3B
:100810000C0F02D150EA013613D195EA0C0F05D125
:1008200052EA03361CBF104619460AD181EA030179
:1008300001F0004141F0FE4141F470014FF0000031
:1008400070BD41F0FE4141F4780170BD70B54FF0CC
:10085000FF0C4CF4E06C1CEA11541DBF1CEA13554C
:1008600094EA0C0F95EA0C0F00F0A7F8A4EB05042E
:1008700081EA030E52EA03354FEA013100F0888025
:100880004FEA03334FF0805545EA131343EA1263EE
:100890004FEA022245EA111545EA10654FEA0026A3
:1008A0000EF000419D4208BF964244F1FD0404F55C
:1008B000407402D25B084FEA3202B61A65EB0305B8
:1008C0005B084FEA32024FF480104FF4002CB6EB75
:1008D000020E75EB030E22BFB61A754640EA0C00F5
:1008E0005B084FEA3202B6EB020E75EB030E22BF35
:1008F000B61A754640EA5C005B084FEA3202B6EB76
:10090000020E75EB030E22BFB61A754640EA9C0034
:100910005B084FEA3202B6EB020E75EB030E22BF04
:10092000B61A754640EADC0055EA060E18D04FEAC2
:10093000051545EA16754FEA06164FEAC30343EA62
:1009400052734FEAC2025FEA1C1CC0D111F4801F2F
:100950000BD141EA00014FF000004FF0004CB6E728
:1009600011F4801F04BF01430020B4F1FD0C88BFC7
:10097000BCF5E06F3FF6AFAEB5EB030C04BFB6EBD2
:10098000020C5FEA500C50F1000041EB045170BDC5
:100990000EF0004E4EEA113114EB5C04C2BFD4EBF2
:1009A0000C0541EA045170BD41F480114FF0000E76
:1009B000013C90E645EA060E8DE60CEA135594EAF2
:1009C0000C0F08BF95EA0C0F3FF43BAF94EA0C0FF5
:1009D0000AD150EA01347FF434AF95EA0C0F7FF46A
:1009E00025AF104619462CE795EA0C0F06D152EABE
:1009F00003353FF4FDAE1046194622E750EA4106A2
:100A000018BF52EA43067FF4C5AE50EA41047FF4B2
:100A10000DAF52EA43057FF4EBAE12E74FF0FF3C17
:100A200006E000BF4FF0010C02E000BF4FF0010CE8
:100A30004DF804CD4FEA410C7FEA6C5C4FEA430C61
:100A400018BF7FEA6C5C1BD001B050EA410C0CBFB0
:100A500052EA430C91EA030F02BF90EA020F002012
:100A6000704710F1000F91EA030F58BF994208BF79
:100A700090422CBFD8176FEAE37040F00100704736
:100A80004FEA410C7FEA6C5C02D150EA013C07D18D
:100A90004FEA430C7FEA6C5CD6D152EA033CD3D0D8
:100AA0005DF8040B704700BF8446104662468C46D2
:100AB0001946634600E000BF01B5FFF7B7FF002805
:100AC00048BF10F1000F01BD4DF808EDFFF7F4FF2E
:100AD0000CBF012000205DF808FB00BF4DF808EDB9
:100AE000FFF7EAFF34BF012000205DF808FB00BFDC
:100AF0004DF808EDFFF7E0FF94BF012000205DF8FE
:100B000008FB00BF4DF808EDFFF7CEFF94BF0120B2
:100B100000205DF808FB00BF4DF808EDFFF7C4FFAB
:100B200034BF012000205DF808FB00BF4FEA410CF4
:100B30007FEA6C5C02D150EA013C0AD14FEA430CD7
:100B40007FEA6C5C02D152EA033C02D14FF0000014
:100B500070474FF0010070474FEA410212F5001252
:100B600015D211D56FF47873B3EB625212D94FEAF4
:100B7000C12343F0004343EA505311F0004F23FADE
:100B800002F018BF404270474FF00000704750EA33
:100B9000013005D111F0004008BF6FF000407047F0
:100BA0004FF00000704700BF53B94AB9002908BF91
:100BB00000281CBF4FF0FF314FF0FF3000F06EB93E
:100BC000ADF1080C6DE904CE00F006F8DDF804E0A4
:100BD000DDE9022304B070472DE9F047089D044683
:100BE0008C46002B40F083808A42174647D9B2FAE0
:100BF00082F242B1C2F1200024FA00F09140974005
:100C000040EA010C94404FEA1748230CBCFBF8F66D
:100C10001FFA87FE08FB16C143EA014306FB0EF1EB
:100C2000994209D9FB1806F1FF3080F019819942E9
:100C300040F21681023E3B445B1AA4B2B3FBF8F0CB
:100C400008FB103344EA034400FB0EFEA64509D915
:100C50003C1900F1FF3380F00581A64540F2028186
:100C600002383C4440EA0640A4EB0E0400261DB1C5
:100C7000D4400023C5E900433146BDE8F08702B9FE
:100C8000FFDEB2FA82F2002A50D1CB1B4FEA174E98
:100C90001FFA87F80126B3FBFEFC210C0EFB1C3368
:100CA00041EA034108FB0CF38B4207D979180CF198
:100CB000FF3002D28B4200F2E9808446C91AA3B207
:100CC000B1FBFEF00EFB101143EA014408FB00F8F3
:100CD000A04507D93C1900F1FF3302D2A04500F22C
:100CE000D9801846A4EB080440EA0C40BFE78B42C9
:100CF00009D9002D00F0B1800026C5E90001304679
:100D00003146BDE8F087B3FA83F6002E4AD18B4214
:100D100002D3824200F2B880841A61EB0301012001
:100D20008C46002DA8D0C5E9004CA5E7C2F12003F0
:100D300020FA03F6974001FA02F04FEA174ED94025
:100D40003043030CB1FBFEF61FFA87F80EFB1611B9
:100D500043EA014306FB08F1994204FA02F409D977
:100D6000FB1806F1FF3C80F08D80994240F28A80AA
:100D7000023E3B445B1A81B2B3FBFEF00EFB103324
:100D800041EA034100FB08F38B4207D9791800F1CF
:100D9000FF3C73D28B4271D902383944CB1A40EAF6
:100DA000064678E7C6F1200C03FA06F422FA0CF3A3
:100DB0001C4320FA0CF701FA06F34FEA144E21FA0D
:100DC0000CF11F433B0CB1FBFEF91FFA84F80EFB3C
:100DD000191143EA014109FB08FA8A4502FA06F2B1
:100DE00000FA06F308D9611809F1FF3048D28A45A4
:100DF00046D9A9F102092144A1EB0A01BFB2B1FB16
:100E0000FEF00EFB101147EA014700FB08F8B84559
:100E100007D9E71900F1FF312ED2B8452CD9023895
:100E2000274440EA0940A7EB0807A0FB02894F4589
:100E3000C64649461AD317D05DB1B3EB0E0267EB35
:100E4000010707FA0CFCF2404CEA0202F740C5E940
:100E5000002700263146BDE8F0872E4628460BE7DE
:100E60000646E9E61846FDE64345E5D2B8EB020E34
:100E700069EB04010138DFE70846D2E760468DE7F9
:100E80008146B9E7664675E730464AE7ACF1020CA1
:100E9000394413E702383C4424E700BF704700BFE1
:100EA00080B586B002AFF860B9607A603B600A4BEB
:100EB00000930A4B0A4A0B49B86800F015F8BB6961
:100EC00000933B687A68B968F86800F097FA00BF49
:100ED0001037BD4680BD00BF180000201000002064
:100EE000BCB401080000002080B487B000AFF860F7
:100EF000B9607A603B600023FB750CE0FB7D9B00D2
:100F0000BA681A44FB7D9B00F9680B4412681A60AA
:100F1000FB7D0133FB75FB7D032BEFD90423BB75F0
:100F20000FE0BB7D03F18043043B9B007A681A44C9
:100F3000BB7D9B00F9680B4412681A60BB7D0133CE
:100F4000BB75BB7D0B2BECD90C237B750FE07B7D38
:100F500003F180430C3B9B003A681A447B7D9B0065
:100F6000F9680B4412681A607B7D01337B757B7DC9
:100F70000D2BECD90E233B750FE03B7D03F1804335
:100F80000E3B9B003A6A1A443B7D9B00F9680B4478
:100F900012681A603B7D01333B753B7D0F2BECD90A
:100FA00000BF00BF1C37BD465DF8047B704780B4AE
:100FB00095B000AF78603960002387F84F3012E0B9
:100FC00097F84F309B003A681A4497F84F301268F0
:100FD0009B0007F150010B4443F8442C97F84F3025
:100FE000013387F84F3097F84F300F2BE8D90023A3
:100FF00087F84E3084E1FA68FB691344FB60FA6BB2
:10100000FB685340FB63FB6B4FEA3343FB63FA6AB5
:10101000FB6B1344FB62FA69FB6A5340FB61FB699B
:101020004FEA3353FB61FA68FB691344FB60FA6BC8
:10103000FB685340FB63FB6B4FEA3363FB63FA6A65
:10104000FB6B1344FB62FA69FB6A5340FB61FB696B
:101050004FEA7363FB613A693B6A13443B613A6C44
:101060003B6953403B643B6C4FEA33433B643A6B10
:101070003B6C13443B633A6A3B6B53403B623B6AB5
:101080004FEA33533B623A693B6A13443B613A6C23
:101090003B6953403B643B6C4FEA33633B643A6BC0
:1010A0003B6C13443B633A6A3B6B53403B623B6A85
:1010B0004FEA73633B627A697B6A13447B617A6CA3
:1010C0007B6953407B647B6C4FEA33437B647A6B70
:1010D0007B6C13447B637A6A7B6B53407B627B6AD5
:1010E0004FEA33537B627A697B6A13447B617A6C83
:1010F0007B6953407B647B6C4FEA33637B647A6B20
:101100007B6C13447B637A6A7B6B53407B627B6AA4
:101110004FEA73637B62BA69BB6A1344BB61BA6C02
:10112000BB695340BB64BB6C4FEA3343BB64BA6BCF
:10113000BB6C1344BB63BA6ABB6B5340BB62BB6AF4
:101140004FEA3353BB62BA69BB6A1344BB61BA6CE2
:10115000BB695340BB64BB6C4FEA3363BB64BA6B7F
:10116000BB6C1344BB63BA6ABB6B5340BB62BB6AC4
:101170004FEA7363BB62FA683B6A1344FB60BA6C64
:10118000FB685340BB64BB6C4FEA3343BB647A6B70
:10119000BB6C13447B633A6A7B6B53403B623B6A94
:1011A0004FEA33533B62FA683B6A1344FB60BA6C04
:1011B000FB685340BB64BB6C4FEA3363BB647A6B20
:1011C000BB6C13447B633A6A7B6B53403B623B6A64
:1011D0004FEA73633B623A697B6A13443B61FA6B83
:1011E0003B695340FB63FB6B4FEA3343FB63BA6BD2
:1011F000FB6B1344BB637A6ABB6B53407B627B6AB5
:101200004FEA33537B623A697B6A13443B61FA6B62
:101210003B695340FB63FB6B4FEA3363FB63BA6B81
:10122000FB6B1344BB637A6ABB6B53407B627B6A84
:101230004FEA73637B627A69BB6A13447B613A6CE1
:101240007B6953403B643B6C4FEA33433B64FA6A2F
:101250003B6C1344FB62BA6AFB6A5340BB62BB6AD5
:101260004FEA3353BB627A69BB6A13447B613A6CC1
:101270007B6953403B643B6C4FEA33633B64FA6ADF
:101280003B6C1344FB62BA6AFB6A5340BB62BB6AA5
:101290004FEA7363BB62BA69FB691344BB617A6C42
:1012A000BB6953407B647B6C4FEA33437B643A6B8E
:1012B0007B6C13443B63FA693B6B5340FB61FB69F6
:1012C0004FEA3353FB61BA69FB691344BB617A6C23
:1012D000BB6953407B647B6C4FEA33637B643A6B3E
:1012E0007B6C13443B63FA693B6B5340FB61FB69C6
:1012F0004FEA7363FB6197F84E30023387F84E3044
:1013000097F84E30132B7FF676AE002387F84D30DA
:10131000002387F84C3066E097F84D309B0007F1CA
:101320005002134453F8441C97F84D309B003A6820
:1013300013441A6897F84D300A449B0007F1500196
:101340000B4443F8442C97F84D309B0007F15002B2
:10135000134453F8442C97F84C30591C87F84C1020
:1013600019467B680B44D2B21A7097F84D309B0037
:1013700007F15002134453F8443C1A0A97F84C30D2
:10138000591C87F84C1019467B680B44D2B21A706E
:1013900097F84D309B0007F15002134453F8443C3A
:1013A0001A0C97F84C30591C87F84C1019467B687A
:1013B0000B44D2B21A7097F84D309B0007F15002DF
:1013C000134453F8443C1A0E97F84C30591C87F8D4
:1013D0004C1019467B680B44D2B21A7097F84D3006
:1013E000013387F84D3097F84D300F2B94D900BF5B
:1013F00000BF5437BD465DF8047B704780B588B0A8
:1014000000AFF860B9607A603B60B968F868FFF7D0
:10141000CEFD0023FB613B689B093B613B6803F009
:101420003F03002B01D0012300E000233A6913445D
:101430003B610023BB6120E00023FB7513E0FB7DD3
:10144000FA68134419787A68FB6913441A78B86A01
:10145000FB6903444A40D2B21A70FB690133FB6155
:10146000FB7D0133FB75FB7D3F2B03D8FA693B689D
:101470009A42E4D3BB690133BB61BB693A699A42C2
:10148000DAD800BF00BF2037BD4680BD80B586B02A
:1014900002AF0346FB7107F10F02F91D64230093AD
:1014A0000123044812F066FEFB7B18461037BD4648
:1014B00080BD00BF0403002080B584B000AF0023CE
:1014C000FB600023BB6000237B6000233B600022A5
:1014D0004FF48051134811F0A1F89F20FFF7D6FF79
:1014E000A520FFF7D3FF0346BB60A520FFF7CEFF83
:1014F00003467B60A520FFF7C9FF03463B6001223E
:101500004FF48051074811F089F8BB681A047B68D2
:101510001B0213433A681343FB60FB6818461037FD
:10152000BD4680BD0004024090B583B000AF0022EC
:101530004FF48051164811F071F84B20FFF7A6FFC9
:101540000023FB7105E0A520FFF7A0FFFB79013325
:10155000FB71FB79032BF6D90023BB710BE0BC793F
:10156000A520FFF793FF03461A460A4B23445A70FF
:10157000BB790133BB71BB79072BF0D901224FF442
:101580008051034811F04AF800BF0C37BD4690BDAA
:1015900000040240DC02002080B584B000AF0346A6
:1015A000FB710023FB7300224FF480511C4811F0A3
:1015B00035F8FB79012B0CD10520FFF767FFA5203B
:1015C000FFF764FF0346FB73164AFB7B82F8243067
:1015D0001BE0FB79022B0CD13520FFF757FFA5202C
:1015E000FFF754FF0346FB730E4AFB7B82F825305E
:1015F0000BE01520FFF74AFFA520FFF747FF034642
:10160000FB73084AFB7B82F8263001224FF480519D
:10161000034811F003F8FB7B18461037BD4680BD28
:1016200000040240DC02002080B582B000AF604BB5
:10163000012283F8272002E0012010F071FA10F057
:1016400063FA0346632BF7D901224FF480515948BE
:1016500010F0E4FF642010F063FAFFF72DFF7860CC
:101660007B689BB2A3F58043113B092B5FD801A295
:1016700052F823F021170008131700080517000877
:10168000F7160008E9160008DB160008CD1600085A
:10169000BD160008AD1600089D160008444B0A222E
:1016A0001A70434B4FF48062DA6146E0404B0922E6
:1016B0001A703F4B4FF40072DA613EE03C4B082257
:1016C0001A703B4B4FF48072DA6136E0384B0722D8
:1016D0001A70374B8022DA612FE0354B06221A70E0
:1016E000334B4022DA6128E0314B05221A70304B2F
:1016F0002022DA6121E02E4B04221A702C4B10229A
:10170000DA611AE02A4B03221A70294B0822DA61A7
:1017100013E0274B02221A70254B0422DA610CE0F9
:10172000234B01221A70224B0222DA6105E0204B82
:10173000002283F82720002336E01D4B4FF48072EF
:101740005A811B4B4FF480521A61194BDB691B0104
:10175000174A5361164B5B69154A126902FB03F382
:10176000134A5289B3FBF2F3114AD360104B1B6941
:101770001B010F4A93610E4B5B690D4A126902FB14
:1017800003F39B0A0A4A1362FFF7CEFE0120FFF71C
:1017900003FF0220FFF700FF0320FFF7FDFE044BCD
:1017A000002283F82720012318460837BD4680BD54
:1017B000DC0200200004024080B483B000AF7860F7
:1017C000074B1B697A6802FB03F3054A5289B3FB96
:1017D000F2F318460C37BD465DF8047B704700BF36
:1017E000DC02002080B584B000AFF860B9607A6098
:1017F0003B6002E0012010F093F9354B93F827305D
:10180000012BF7D0324B012283F82720304B5B8924
:101810001A463B68934202D83B68002B02D12C4BFE
:101820005B893B607A683B681344294A528993423A
:1018300005D9274B5B891A467B68D31A3B60244B3A
:101840005B891A46BB6803FB02F37A681344BB60EA
:1018500000224FF480511F4810F0E0FE0B20FFF7EC
:1018600015FE1B4B1B78082B05D9BB681B0EDBB282
:101870001846FFF70BFEBB681B0CDBB21846FFF7E0
:1018800005FEBB681B0ADBB21846FFF7FFFDBB680D
:10189000DBB21846FFF7FAFD0020FFF7F7FD3B68C3
:1018A0009AB26423F9680C4812F053FB01224FF4FA
:1018B0008051084810F0B2FE012010F031F9044BBD
:1018C000002283F8272000BF1037BD4680BD00BF2F
:1018D000DC020020000402400403002080B588B030
:1018E00000AFF860B9607A603B602C4B1B693A68C6
:1018F0009A4202D83B68002B02D1284B1B693B60FF
:10190000264B1B697A689A4243D27A683B681A442C
:10191000224B1B699A4205D9204B1A697B68D31A5E
:10192000BB6101E03B68BB61B868FFF745FF024659
:101930001A4B5B8919467B68B3FBF1F31344FB61D7
:10194000164B5B891A467B68B3FBF2F102FB01F28E
:101950009B1A7B61BB697A69F969F868FFF742FFF6
:10196000FB690133FB610D4B5B891A467B699A1A4F
:10197000BB691344BB61094B5B891A467B69D31A67
:10198000FA681344FB6000237B61BB69002BE1DC38
:1019900000E000BF2037BD4680BD00BFDC02002054
:1019A0002DE9B00385B000AF78607B681B78DAB2B0
:1019B0004FF00003C7E902237B6801331B78D8B2DC
:1019C0004FF000014FF000024FF000030B0243EA1A
:1019D00010630202D7E9020140EA020841EA030962
:1019E000C7E902897B6802331B78D8B24FF0000147
:1019F0004FF000024FF000030B0443EA10430204CF
:101A0000D7E9020140EA020441EA0305C7E90245B9
:101A1000D7E90223104619461437BD46BDE8B00386
:101A200070472DE9F00F86B000AFF860FB681B78B7
:101A3000DAB24FF00003C7E90423FB6801331B78D7
:101A4000D8B24FF000014FF000024FF000030B023C
:101A500043EA10630202D7E9040140EA02063E604D
:101A60000B437B60D7E90023C7E90423FB680233FB
:101A70001B78D8B24FF000014FF000024FF0000386
:101A80000B0443EA10430204D7E9040140EA020AC6
:101A900041EA030BC7E904ABFB6803331B78DAB2F6
:101AA0004FF00003150A1406D7E9042342EA04089C
:101AB00043EA0509C7E90489D7E904231046194612
:101AC0001837BD46BDE8F00F704780B483B000AF53
:101AD00078607B6800221A607B68043300221A60F9
:101AE0007B68083300221A607B680C3300221A607E
:101AF0007B68103300221A607B68143300221A605E
:101B00007B68183300221A607B681C3300221A603D
:101B10007B68203300221A607B68243300221A601D
:101B200000BF0C37BD465DF8047B704780B483B0BE
:101B300000AF78607B6801221A607B680433002262
:101B40001A607B68083300221A607B680C3300221D
:101B50001A607B68103300221A607B6814330022FD
:101B60001A607B68183300221A607B681C330022DD
:101B70001A607B68203300221A607B6824330022BD
:101B80001A6000BF0C37BD465DF8047B704780B417
:101B9000A3B000AFF860B9607A60BB681B68C7F893
:101BA0008430BB685B68C7F88030BB689B68FB67A4
:101BB000BB68DB68BB67BB681B697B67BB685B692D
:101BC0003B67BB689B69FB66BB68DB69BB66BB6840
:101BD0001B6A7B66BB685B6A3B667B681B68FB6550
:101BE0007B685B68BB657B689B687B657B68DB6843
:101BF0003B657B681B69FB647B685B69BB647B68D6
:101C00009B697B647B68DB693B647B681B6AFB6365
:101C10007B685B6ABB63D7F88420FB6D13447B63EE
:101C2000D7F88020BB6D13443B63FA6F7B6D134480
:101C3000FB62BA6F3B6D1344BB627A6FFB6C13445B
:101C40007B623A6FBB6C13443B62FA6E7B6C13444D
:101C5000FB61BA6E3B6C1344BB617A6EFB6B134441
:101C60007B613A6EBB6B13443B61FB687A6B1A6015
:101C7000FB6804333A6B1A60FB680833FA6A1A602F
:101C8000FB680C33BA6A1A60FB6810337A6A1A6010
:101C9000FB6814333A6A1A60FB681833FA691A60F1
:101CA000FB681C33BA691A60FB6820337A691A60D2
:101CB000FB6824333A691A6000BF8C37BD465DF873
:101CC000047B704780B48DB000AF786039603B68AA
:101CD0001B68FB623B685B68BB623B689B687B621E
:101CE0003B68DB683B623B681B69FB613B685B6987
:101CF000BB613B689B697B613B68DB693B613B681F
:101D00001B6AFB603B685B6ABB607B68FA6A1A60AF
:101D10007B680433BA6A1A607B6808337A6A1A608F
:101D20007B680C333A6A1A607B681033FA691A6070
:101D30007B681433BA691A607B6818337A691A6051
:101D40007B681C333A691A607B682033FA681A6032
:101D50007B682433BA681A6000BF3437BD465DF82B
:101D6000047B70472DE9F04FE7B000AFC7F8F400EF
:101D7000C7F8F010D7F8F000FFF753FE02460B4605
:101D8000C7E96423D7F8F03004331846FFF708FE9C
:101D900002460B464FF000004FF00001990141EA66
:101DA00092619001C7E96201D7F8F0300733184615
:101DB000FFF7F6FD02460B464FF000004FF0000122
:101DC000590141EAD2615001C7E96001D7F8F0300A
:101DD0000A331846FFF7E4FD02460B464FF00000B9
:101DE0004FF00001D90041EA5271D000C7E95E010D
:101DF000D7F8F0300D331846FFF7D2FD02460B46F8
:101E00004FF000004FF00001990041EA92719000FC
:101E1000C7E95C01D7F8F03010331846FFF701FE30
:101E200002460B46C7E95A23D7F8F0301433184658
:101E3000FFF7B6FD02460B464FF000004FF00001E1
:101E4000D90141EA5261D001C7E95801D7F8F03011
:101E500017331846FFF7A4FD02460B464FF000006B
:101E60004FF00001590141EAD2615001C7E9560122
:101E7000D7F8F0301A331846FFF792FD02460B46AA
:101E80004FF000004FF00001190141EA12711001FA
:101E9000C7E95401D7F8F0301D331846FFF780FD2D
:101EA00002460B464FF000004FF00001990041EA56
:101EB00092719000EB4A4FF0000300EA0206C7F867
:101EC000A8600B40C7F8AC30D7E92A23C7E95223F2
:101ED000D7E9522312F1807443F100054FF000025C
:101EE0004FF00003620E42EAC5126B16C7E9502399
:101EF000D7E9504522462B464FF000004FF0000135
:101F0000D90041EA5271D00002460B46121945EB46
:101F100003039118C7F8A0105B41C7F8A430D7E9B4
:101F2000282312EB040A43EB050BD7E9642312EBD9
:101F30000A01C7F8981043EB0B03C7F89C30D7E9A8
:101F40002634C7E96434D7E950234FF000004FF03E
:101F50000001590641EAD2115006D7E95223141A5A
:101F6000C7F8904063EB0103C7F89430D7E92434F5
:101F7000C7E95234D7E9622312F1807843F10009AE
:101F80004FF000024FF000034FEA586242EAC912D4
:101F90004FEA6963C7E94E23D7E96001D7E94E23C9
:101FA0008418C7F8884041EB0303C7F88C30D7E9A1
:101FB0002234C7E96034D7E94E234FF000004FF0D8
:101FC0000001590641EAD2115006D7E96223141ADA
:101FD000C7F8804063EB0103C7F88430D7E92034A9
:101FE000C7E96234D7E95E2312F18071C7F8E810BF
:101FF00043F10003C7F8EC304FF000024FF000034C
:10200000D7E93A4521464A0E294642EAC1122946F5
:102010004B16C7E94C23D7E95C01D7E94C23841858
:10202000BC6741EB0303FB67D7E91E34C7E95C34A7
:10203000D7E94C234FF000004FF00001590641EA68
:10204000D2115006D7E95E23141A3C6763EB0103F3
:102050007B67D7E91C34C7E95E34D7E95A2312F10C
:102060008071C7F8E01043F10003C7F8E4304FF087
:1020700000024FF00003D7E9384521464A0E2946B1
:1020800042EAC11229464B16C7E94A23D7E958014B
:10209000D7E94A238418BC6641EB0303FB66D7E902
:1020A0001A34C7E95834D7E94A234FF000004FF0FB
:1020B0000001590641EAD2115006D7E95A23141AF1
:1020C0003C6663EB01037B66D7E91834C7E95A34F1
:1020D000D7E9562312F18071C7F8D81043F10003F5
:1020E000C7F8DC304FF000024FF00003D7E9364567
:1020F00021464A0E294642EAC11229464B16C7E933
:102100004823D7E95401D7E948238418BC6541EB3B
:102110000303FB65D7E91634C7E95434D7E94823EC
:102120004FF000004FF00001590641EAD21150066D
:10213000D7E95623141A3C6563EB01037B65D7E9A5
:102140001434C7E95634D7E9642312F10071C7F893
:10215000D01043F10003C7F8D4304FF000024FF025
:102160000003D7E9344521468A0E294642EA811206
:1021700029468B16C7E94623D7E96201D7E94623EA
:102180008418BC6441EB0303FB64D7E91234C7E94C
:102190006234D7E946234FF000004FF00001990662
:1021A00041EA92119006D7E96423141A3C6463EB68
:1021B00001037B64D7E91034C7E96434D7E96023AD
:1021C00012F10071C7F8C81043F10003C7F8CC3012
:1021D0004FF000024FF00003D7E9324521468A0E46
:1021E000294642EA811229468B16C7E94423D7E9DA
:1021F0005E01D7E944238418BC6341EB0303FB630E
:10220000D7E90E34C7E95E34D7E944234FF0000024
:102210004FF00001990641EA92119006D7E9602338
:10222000141A3C6363EB01037B63D7E90C34C7E901
:102230006034D7E95C2312F10071C7F8C01043F194
:102240000003C7F8C4304FF000024FF00003D7E995
:10225000304521468A0E294642EA811229468B16CC
:1022600002E000BFFCFFFF01C7E94223D7E95A01A2
:10227000D7E942238418BC6241EB0303FB62D7E930
:102280000A34C7E95A34D7E942234FF000004FF02F
:102290000001990641EA92119006D7E95C23141ACD
:1022A0003C6263EB01037B62D7E90834C7E95C3425
:1022B000D7E9582312F10071C7F8B81043F10003B1
:1022C000C7F8BC304FF000024FF00003D7E92E45AD
:1022D00021468A0E294642EA811229468B16C7E911
:1022E0004023D7E95601D7E940238418BC6141EB6C
:1022F0000303FB61D7E90634C7E95634D7E9400147
:102300004FF000024FF000038B0643EA9013820661
:10231000D7E95801841A3C6161EB03037B61D7E97B
:102320000434C7E95834D7E9542312F10071C7F8CF
:10233000B01043F10003C7F8B4304FF000024FF083
:102340000003D7E92C4521468A0E294642EA81122C
:1023500029468B16C7E93E23D7E95201D7E93E2328
:102360008418BC6041EB0303FB60D7E90234C7E982
:102370005234D7E93E014FF000024FF000038B06C4
:1023800043EA90138206D7E95401841A3C6061EB5A
:1023900003037B60D7E90034C7E95434D7F89021B0
:1023A000D7F8F4301A60D7F8F4300433D7F888211E
:1023B0001A60D7F8F4300833D7F880211A60D7F8BC
:1023C000F4300C33D7F878211A60D7F8F430103392
:1023D000D7F870211A60D7F8F4301433D7F8682191
:1023E0001A60D7F8F4301833D7F860211A60D7F89C
:1023F000F4301C33D7F858211A60D7F8F430203362
:10240000D7F850211A60D7F8F4302433D7F8482190
:102410001A6000BF07F5CE77BD46BDE8F08F00BF5C
:1024200080B5ACB000AF7860396007F184033968DB
:10243000184603F09AF90123C7F8AC300CE007F115
:10244000840207F184031146184603F08EF9D7F889
:10245000AC300133C7F8AC30D7F8AC30002BEEDD30
:1024600007F1840207F15C031146184603F07DF979
:102470000123C7F8AC300CE007F15C0207F15C0304
:102480001146184603F071F9D7F8AC300133C7F89C
:10249000AC30D7F8AC30012BEEDD07F15C0207F170
:1024A0005C033968184600F051FA07F15C0207F145
:1024B000840107F18403184600F048FA07F184020A
:1024C00007F134031146184603F04FF90123C7F80A
:1024D000AC300CE007F1340207F134031146184622
:1024E00003F043F9D7F8AC300133C7F8AC30D7F874
:1024F000AC30002BEEDD07F1340207F15C0107F18F
:102500005C03184600F022FA07F15C0207F134037D
:102510001146184603F029F90123C7F8AC300CE046
:1025200007F1340207F134031146184603F01DF990
:10253000D7F8AC300133C7F8AC30D7F8AC30042B47
:10254000EEDD07F15C0207F1340107F15C03184688
:1025500000F0FCF907F15C0207F13403114618465C
:1025600003F003F90123C7F8AC300CE007F13402A3
:1025700007F134031146184603F0F7F8D7F8AC30EA
:102580000133C7F8AC30D7F8AC30092BEEDD07F1DA
:102590005C0207F1340107F13403184600F0D6F964
:1025A00007F1340207F10C031146184603F0DDF879
:1025B0000123C7F8AC300CE007F10C0207F10C0363
:1025C0001146184603F0D1F8D7F8AC300133C7F8FC
:1025D000AC30D7F8AC30132BEEDD07F1340207F145
:1025E0000C0107F13403184600F0B0F907F134028A
:1025F00007F134031146184603F0B7F80123C7F872
:10260000AC300CE007F1340207F1340311461846F0
:1026100003F0ABF8D7F8AC300133C7F8AC30D7F8DB
:10262000AC30092BEEDD07F15C0207F1340107F154
:102630005C03184600F08AF907F15C0207F13403E5
:102640001146184603F091F80123C7F8AC300CE0AE
:1026500007F1340207F134031146184603F085F8F8
:10266000D7F8AC300133C7F8AC30D7F8AC30312BE9
:10267000EEDD07F15C0207F1340107F1340318467F
:1026800000F064F907F1340207F10C031146184613
:1026900003F06BF80123C7F8AC300CE007F10C0233
:1026A00007F10C031146184603F05FF8D7F8AC3079
:1026B0000133C7F8AC30D7F8AC30632BEEDD07F14F
:1026C000340207F10C0107F13403184600F03EF91B
:1026D00007F1340207F134031146184603F045F8B8
:1026E0000123C7F8AC300CE007F1340207F13403E2
:1026F0001146184603F039F8D7F8AC300133C7F863
:10270000AC30D7F8AC30312BEEDD07F15C0207F1CD
:10271000340107F15C03184600F018F907F15C0278
:1027200007F15C031146184603F01FF80123C7F8B0
:10273000AC300CE007F15C0207F15C03114618466F
:1027400003F013F8D7F8AC300133C7F8AC30D7F842
:10275000AC30042BEEDD07F1840207F15C0319466F
:10276000786800F0F3F800BFB037BD4680BD80B593
:102770008AB000AF786007F108037968184606F060
:10278000E2F83B7A03F0010318462837BD4680BDC6
:1027900080B58CB000AF786007F10C0379681846FB
:1027A00006F0D1F83B7B87F82F307A7B97F82F30F3
:1027B000134387F82F30BA7B97F82F30134387F8ED
:1027C0002F30FA7B97F82F30134387F82F303A7C5D
:1027D00097F82F30134387F82F307A7C97F82F30F3
:1027E000134387F82F30BA7C97F82F30134387F8BC
:1027F0002F30FA7C97F82F30134387F82F303A7D2B
:1028000097F82F30134387F82F307A7D97F82F30C1
:10281000134387F82F30BA7D97F82F30134387F88A
:102820002F30FA7D97F82F30134387F82F303A7EF8
:1028300097F82F30134387F82F307A7E97F82F3090
:10284000134387F82F30BA7E97F82F30134387F859
:102850002F30FA7E97F82F30134387F82F303A7FC6
:1028600097F82F30134387F82F307A7F97F82F305F
:10287000134387F82F30BA7F97F82F30134387F828
:102880002F30FA7F97F82F30134387F82F3097F8BF
:10289000202097F82F30134387F82F3097F8212006
:1028A00097F82F30134387F82F3097F8222097F8A6
:1028B0002F30134387F82F3097F8232097F82F30C5
:1028C000134387F82F3097F8242097F82F301343BD
:1028D00087F82F3097F8252097F82F30134387F883
:1028E0002F3097F8262097F82F30134387F82F3092
:1028F00097F8272097F82F30134387F82F3097F851
:10290000282097F82F30134387F82F3097F8292085
:1029100097F82F30134387F82F3097F82A2097F82D
:102920002F30134387F82F3097F82B2097F82F304C
:10293000134387F82F3097F82F30002B14BF012353
:102940000023DBB218463037BD4680BD2DE9B00FFD
:10295000ADF64C0D00AF07F57F73186007F57E7379
:10296000196007F57D731A6007F57E731B681B6895
:10297000C7F8443807F57E731B685B68C7F84038B2
:1029800007F57E731B689B68C7F83C3807F57E73B4
:102990001B68DB68C7F8383807F57E731B681B694E
:1029A000C7F8343807F57E731B685B69C7F83038A1
:1029B00007F57E731B689B69C7F82C3807F57E7393
:1029C0001B68DB69C7F8283807F57E731B681B6A2C
:1029D000C7F8243807F57E731B685B6AC7F8203890
:1029E00007F57D731B681B68C7F81C3807F57D73F6
:1029F0001B685B68C7F8183807F57D731B689B6810
:102A0000C7F8143807F57D731B68DB68C7F8103802
:102A100007F57D731B681B69C7F80C3807F57D73D4
:102A20001B685B69C7F8083807F57D731B689B69ED
:102A3000C7F8043807F57D731B68DB69C7F80038F1
:102A400007F57D731B681B6AC7F8FC3707F57D73B4
:102A50001B685B6AC7F8F837D7F818281346DB00FD
:102A600013445B001344C7F8F437D7F8142813460F
:102A7000DB0013445B001344C7F8F037D7F8102885
:102A80001346DB0013445B001344C7F8EC37D7F858
:102A90000C281346DB0013445B001344C7F8E837E7
:102AA000D7F808281346DB0013445B001344C7F82B
:102AB000E437D7F804281346DB0013445B001344C3
:102AC000C7F8E037D7F800281346DB0013445B0053
:102AD0001344C7F8DC37D7F8FC271346DB00134450
:102AE0005B001344C7F8D837D7F8F8271346DB0044
:102AF00013445B001344C7F8D437D7F840385B0061
:102B0000C7F8D037D7F838385B00C7F8CC37D7F8D4
:102B100030385B00C7F8C837D7F828385B00C7F8EB
:102B2000C437D7F820385B00C7F8C037D7F8443827
:102B300018464FEAE071D7F81C381A464FEAE2739C
:102B400002FB01F500FB03F42C44A0FB0223E11877
:102B50000B4607F5F761C1E9002307F5F761C1E905
:102B60000023D7F8443818464FEAE071D7F81838F0
:102B70001A464FEAE27302FB01F500FB03F42C4412
:102B8000A0FB0223E1180B4607F5F661C1E900231B
:102B900007F5F661C1E90023D7F8443818464FEA33
:102BA000E071D7F814381A464FEAE27302FB01F5D8
:102BB00000FB03F42C44A0FB0223E1180B4607F5AD
:102BC000F561C1E9002307F5F561C1E90023D7F8F4
:102BD000443818464FEAE071D7F810381A464FEAE1
:102BE000E27302FB01F500FB03F42C44A0FB02237B
:102BF000E1180B4607F5F461C1E9002307F5F4611C
:102C0000C1E90023D7F8443818464FEAE071D7F8F5
:102C10000C381A464FEAE27302FB01F500FB03F49D
:102C20002C44A0FB0223E1180B4607F5F361C1E930
:102C3000002307F5F361C1E90023D7F844381846AB
:102C40004FEAE071D7F808381A464FEAE27302FB00
:102C500001F500FB03F42C44A0FB0223E1180B4612
:102C600007F5F261C1E9002307F5F261C1E900232C
:102C7000D7F8443818464FEAE071D7F804381A46B6
:102C80004FEAE27302FB01F500FB03F42C44A0FBC6
:102C90000223E1180B4607F5F161C1E9002307F5AE
:102CA000F161C1E90023D7F8443818464FEAE071D2
:102CB000D7F800381A464FEAE27302FB01F500FB31
:102CC00003F42C44A0FB0223E1180B4607F5F06146
:102CD000C1E9002307F5F061C1E90023D7F84438C2
:102CE00018464FEAE071D7F8FC371A464FEAE2730C
:102CF00002FB01F500FB03F42C44A0FB0223E118C6
:102D00000B4607F5EF61C1E9002307F5EF61C1E963
:102D10000023D7F8443818464FEAE071D7F8F8375F
:102D20001A464FEAE27302FB01F500FB03F42C4460
:102D3000A0FB0223E1180B4607F5EE61C1E9002371
:102D400007F5EE61C1E90023D7F8403818464FEA8D
:102D5000E071D7F81C381A464FEAE27302FB01F51E
:102D600000FB03F42C44A0FB0223E1180B4607F5FB
:102D7000ED61C1E9002307F5ED61C1E90023D7F852
:102D8000D03718464FEAE071D7F818381A464FEA9C
:102D9000E27302FB01F500FB03F42C44A0FB0223C9
:102DA000E1180B4607F5EC61C1E9002307F5EC617A
:102DB000C1E90023D7F8403818464FEAE071D7F848
:102DC00014381A464FEAE27302FB01F500FB03F4E4
:102DD0002C44A0FB0223E1180B4607F5EB61C1E987
:102DE000002307F5EB61C1E90023D7F8D037184677
:102DF0004FEAE071D7F810381A464FEAE27302FB47
:102E000001F500FB03F42C44A0FB0223E1180B4660
:102E100007F5EA61C1E9002307F5EA61C1E900238A
:102E2000D7F8403818464FEAE071D7F80C381A4600
:102E30004FEAE27302FB01F500FB03F42C44A0FB14
:102E40000223E1180B4607F5E961C1E9002307F504
:102E5000E961C1E90023D7F8D03718464FEAE0719D
:102E6000D7F808381A464FEAE27302FB01F500FB77
:102E700003F42C44A0FB0223E1180B4607F5E8619C
:102E8000C1E9002307F5E861C1E90023D7F840381C
:102E900018464FEAE071D7F804381A464FEAE27351
:102EA00002FB01F500FB03F42C44A0FB0223E11814
:102EB0000B4607F5E761C1E9002307F5E761C1E9C2
:102EC0000023D7F8D03718464FEAE071D7F800381A
:102ED0001A464FEAE27302FB01F500FB03F42C44AF
:102EE000A0FB0223E1180B4607F5E661C1E90023C8
:102EF00007F5E661C1E90023D7F8403818464FEAE4
:102F0000E071D7F8FC371A464FEAE27302FB01F58D
:102F100000FB03F42C44A0FB0223E1180B4607F549
:102F2000E561C1E9002307F5E561C1E90023D7F8B0
:102F3000D03718464FEAE071D7F8D4371A464FEA2F
:102F4000E27302FB01F500FB03F42C44A0FB022317
:102F5000E1180B4607F5E461C1E9002307F5E461D8
:102F6000C1E90023D7F83C3818464FEAE071D7F89A
:102F70001C381A464FEAE27302FB01F500FB03F42A
:102F80002C44A0FB0223E1180B4607F5E361C1E9DD
:102F9000002307F5E361C1E90023D7F83C38184660
:102FA0004FEAE071D7F818381A464FEAE27302FB8D
:102FB00001F500FB03F42C44A0FB0223E1180B46AF
:102FC00007F5E261C1E9002307F5E261C1E90023E9
:102FD000D7F83C3818464FEAE071D7F814381A464B
:102FE0004FEAE27302FB01F500FB03F42C44A0FB63
:102FF0000223E1180B4607F5E161C1E9002307F55B
:10300000E161C1E90023D7F83C3818464FEAE07186
:10301000D7F810381A464FEAE27302FB01F500FBBD
:1030200003F42C44A0FB0223E1180B4607F5E061F2
:10303000C1E9002307F5E061C1E90023D7F83C3876
:1030400018464FEAE071D7F80C381A464FEAE27397
:1030500002FB01F500FB03F42C44A0FB0223E11862
:103060000B4607F5DF61C1E9002307F5DF61C1E920
:103070000023D7F83C3818464FEAE071D7F80838F3
:103080001A464FEAE27302FB01F500FB03F42C44FD
:10309000A0FB0223E1180B4607F5DE61C1E900231E
:1030A00007F5DE61C1E90023D7F83C3818464FEA3E
:1030B000E071D7F804381A464FEAE27302FB01F5D3
:1030C00000FB03F42C44A0FB0223E1180B4607F598
:1030D000DD61C1E9002307F5DD61C1E90023D7F80F
:1030E0003C3818464FEAE071D7F800381A464FEAE4
:1030F000E27302FB01F500FB03F42C44A0FB022366
:10310000E1180B4607F5DC61C1E9002307F5DC6136
:10311000C1E90023D7F83C3818464FEAE071D7F8E8
:10312000D8371A464FEAE27302FB01F500FB03F4BD
:103130002C44A0FB0223E1180B4607F5DB61C1E933
:10314000002307F5DB61C1E90023D7F83C381846B6
:103150004FEAE071D7F8D4371A464FEAE27302FB20
:1031600001F500FB03F42C44A0FB0223E1180B46FD
:1031700007F5DA61C1E9002307F5DA61C1E9002347
:10318000D7F8383818464FEAE071D7F81C381A4695
:103190004FEAE27302FB01F500FB03F42C44A0FBB1
:1031A0000223E1180B4607F5D961C1E9002307F5B1
:1031B000D961C1E90023D7F8CC3718464FEAE0714E
:1031C000D7F818381A464FEAE27302FB01F500FB04
:1031D00003F42C44A0FB0223E1180B4607F5D86149
:1031E000C1E9002307F5D861C1E90023D7F83838D1
:1031F00018464FEAE071D7F814381A464FEAE273DE
:1032000002FB01F500FB03F42C44A0FB0223E118B0
:103210000B4607F5D761C1E9002307F5D761C1E97E
:103220000023D7F8CC3718464FEAE071D7F81038AA
:103230001A464FEAE27302FB01F500FB03F42C444B
:10324000A0FB0223E1180B4607F5D661C1E9002374
:1032500007F5D661C1E90023D7F8383818464FEA98
:10326000E071D7F80C381A464FEAE27302FB01F519
:1032700000FB03F42C44A0FB0223E1180B4607F5E6
:10328000D561C1E9002307F5D561C1E90023D7F86D
:10329000CC3718464FEAE071D7F808381A464FEA9B
:1032A000E27302FB01F500FB03F42C44A0FB0223B4
:1032B000E1180B4607F5D461C1E9002307F5D46195
:1032C000C1E90023D7F8383818464FEAE071D7F83B
:1032D00004381A464FEAE27302FB01F500FB03F4DF
:1032E0002C44A0FB0223E1180B4607F5D361C1E98A
:1032F000002307F5D361C1E90023D7F8CC3718467E
:103300004FEAE071D7F8DC371A464FEAE27302FB66
:1033100001F500FB03F42C44A0FB0223E1180B464B
:1033200007F5D261C1E9002307F5D261C1E90023A5
:10333000D7F8383818464FEAE071D7F8D8371A4628
:103340004FEAE27302FB01F500FB03F42C44A0FBFF
:103350000223E1180B4607F5D161C1E9002307F507
:10336000D161C1E90023D7F8CC3718464FEAE071A4
:10337000D7F8D4371A464FEAE27302FB01F500FB97
:1033800003F42C44A0FB0223E1180B4607F5D0619F
:10339000C1E9002307F5D061C1E90023D7F834382B
:1033A00018464FEAE071D7F81C381A464FEAE27324
:1033B00002FB01F500FB03F42C44A0FB0223E118FF
:1033C0000B4607F5CF61C1E9002307F5CF61C1E9DD
:1033D0000023D7F8343818464FEAE071D7F8183888
:1033E0001A464FEAE27302FB01F500FB03F42C449A
:1033F000A0FB0223E1180B4607F5CE61C1E90023CB
:1034000007F5CE61C1E90023D7F8343818464FEAF2
:10341000E071D7F814381A464FEAE27302FB01F55F
:1034200000FB03F42C44A0FB0223E1180B4607F534
:10343000CD61C1E9002307F5CD61C1E90023D7F8CB
:10344000343818464FEAE071D7F810381A464FEA78
:10345000E27302FB01F500FB03F42C44A0FB022302
:10346000E1180B4607F5CC61C1E9002307F5CC61F3
:10347000C1E90023D7F8343818464FEAE071D7F88D
:103480000C381A464FEAE27302FB01F500FB03F425
:103490002C44A0FB0223E1180B4607F5CB61C1E9E0
:1034A000002307F5CB61C1E90023D7F8343818466B
:1034B0004FEAE071D7F808381A464FEAE27302FB88
:1034C00001F500FB03F42C44A0FB0223E1180B469A
:1034D00007F5CA61C1E9002307F5CA61C1E9002304
:1034E000D7F8343818464FEAE071D7F8E0371A4673
:1034F0004FEAE27302FB01F500FB03F42C44A0FB4E
:103500000223E1180B4607F5C961C1E9002307F55D
:10351000C961C1E90023D7F8343818464FEAE07191
:10352000D7F8DC371A464FEAE27302FB01F500FBDD
:1035300003F42C44A0FB0223E1180B4607F5C861F5
:10354000C1E9002307F5C861C1E90023D7F8343881
:1035500018464FEAE071D7F8D8371A464FEAE273B7
:1035600002FB01F500FB03F42C44A0FB0223E1184D
:103570000B4607F5C761C1E9002307F5C761C1E93B
:103580000023D7F8343818464FEAE071D7F8D4371B
:103590001A464FEAE27302FB01F500FB03F42C44E8
:1035A000A0FB0223E1180B4607F5C661C1E9002321
:1035B00007F5C661C1E90023D7F8303818464FEA4D
:1035C000E071D7F81C381A464FEAE27302FB01F5A6
:1035D00000FB03F42C44A0FB0223E1180B4607F583
:1035E000C561C1E9002307F5C561C1E90023D7F82A
:1035F000C83718464FEAE071D7F818381A464FEA2C
:10360000E27302FB01F500FB03F42C44A0FB022350
:10361000E1180B4607F5C461C1E9002307F5C46151
:10362000C1E90023D7F8303818464FEAE071D7F8DF
:1036300014381A464FEAE27302FB01F500FB03F46B
:103640002C44A0FB0223E1180B4607F5C361C1E936
:10365000002307F5C361C1E90023D7F8C83718462E
:103660004FEAE071D7F810381A464FEAE27302FBCE
:1036700001F500FB03F42C44A0FB0223E1180B46E8
:1036800007F5C261C1E9002307F5C261C1E9002362
:10369000D7F8303818464FEAE071D7F80C381A4698
:1036A0004FEAE27302FB01F500FB03F42C44A0FB9C
:1036B0000223E1180B4607F5C161C1E9002307F5B4
:1036C000C161C1E90023D7F8C83718464FEAE07155
:1036D000D7F8E4371A464FEAE27302FB01F500FB24
:1036E00003F42C44A0FB0223E1180B4607F5C0614C
:1036F000C1E9002307F5C061C1E90023D7F83038DC
:1037000018464FEAE071D7F8E0371A464FEAE273FD
:1037100002FB01F500FB03F42C44A0FB0223E1189B
:103720000B4607F5BF61C1E9002307F5BF61C1E999
:103730000023D7F8C83718464FEAE071D7F8DC37CE
:103740001A464FEAE27302FB01F500FB03F42C4436
:10375000A0FB0223E1180B4607F5BE61C1E9002377
:1037600007F5BE61C1E90023D7F8303818464FEAA3
:10377000E071D7F8D8371A464FEAE27302FB01F539
:1037800000FB03F42C44A0FB0223E1180B4607F5D1
:10379000BD61C1E9002307F5BD61C1E90023D7F888
:1037A000C83718464FEAE071D7F8D4371A464FEABF
:1037B000E27302FB01F500FB03F42C44A0FB02239F
:1037C000E1180B4607F5BC61C1E9002307F5BC61B0
:1037D000C1E90023D7F82C3818464FEAE071D7F832
:1037E0001C381A464FEAE27302FB01F500FB03F4B2
:1037F0002C44A0FB0223E1180B4607F5BB61C1E98D
:10380000002307F5BB61C1E90023D7F82C3818461F
:103810004FEAE071D7F818381A464FEAE27302FB14
:1038200001F500FB03F42C44A0FB0223E1180B4636
:1038300007F5BA61C1E9002307F5BA61C1E90023C0
:10384000D7F82C3818464FEAE071D7F814381A46E2
:103850004FEAE27302FB01F500FB03F42C44A0FBEA
:103860000223E1180B4607F5B961C1E9002307F50A
:10387000B961C1E90023D7F82C3818464FEAE07146
:10388000D7F810381A464FEAE27302FB01F500FB45
:1038900003F42C44A0FB0223E1180B4607F5B861A2
:1038A000C1E9002307F5B861C1E90023D7F82C3836
:1038B00018464FEAE071D7F8E8371A464FEAE27344
:1038C00002FB01F500FB03F42C44A0FB0223E118EA
:1038D0000B4607F5B761C1E9002307F5B761C1E9F8
:1038E0000023D7F82C3818464FEAE071D7F8E437B0
:1038F0001A464FEAE27302FB01F500FB03F42C4485
:10390000A0FB0223E1180B4607F5B661C1E90023CD
:1039100007F5B661C1E90023D7F82C3818464FEAFD
:10392000E071D7F8E0371A464FEAE27302FB01F57F
:1039300000FB03F42C44A0FB0223E1180B4607F51F
:10394000B561C1E9002307F5B561C1E90023D7F8E6
:103950002C3818464FEAE071D7F8DC371A464FEAA0
:10396000E27302FB01F500FB03F42C44A0FB0223ED
:10397000E1180B4607F5B461C1E9002307F5B4610E
:10398000C1E90023D7F82C3818464FEAE071D7F880
:10399000D8371A464FEAE27302FB01F500FB03F445
:1039A0002C44A0FB0223E1180B4607F5B361C1E9E3
:1039B000002307F5B361C1E90023D7F82C38184676
:1039C0004FEAE071D7F8D4371A464FEAE27302FBA8
:1039D00001F500FB03F42C44A0FB0223E1180B4685
:1039E00007F5B261C1E9002307F5B261C1E900231F
:1039F000D7F8283818464FEAE071D7F81C381A462D
:103A00004FEAE27302FB01F500FB03F42C44A0FB38
:103A10000223E1180B4607F5B161C1E9002307F560
:103A2000B161C1E90023D7F8C43718464FEAE07105
:103A3000D7F818381A464FEAE27302FB01F500FB8B
:103A400003F42C44A0FB0223E1180B4607F5B061F8
:103A5000C1E9002307F5B061C1E90023D7F8283890
:103A600018464FEAE071D7F814381A464FEAE27365
:103A700002FB01F500FB03F42C44A0FB0223E11838
:103A80000B4607F5AF61C1E9002307F5AF61C1E956
:103A90000023D7F8C43718464FEAE071D7F8EC375F
:103AA0001A464FEAE27302FB01F500FB03F42C44D3
:103AB000A0FB0223E1180B4607F5AE61C1E9002324
:103AC00007F5AE61C1E90023D7F8283818464FEA58
:103AD000E071D7F8E8371A464FEAE27302FB01F5C6
:103AE00000FB03F42C44A0FB0223E1180B4607F56E
:103AF000AD61C1E9002307F5AD61C1E90023D7F845
:103B0000C43718464FEAE071D7F8E4371A464FEA4F
:103B1000E27302FB01F500FB03F42C44A0FB02233B
:103B2000E1180B4607F5AC61C1E9002307F5AC616C
:103B3000C1E90023D7F8283818464FEAE071D7F8D2
:103B4000E0371A464FEAE27302FB01F500FB03F48B
:103B50002C44A0FB0223E1180B4607F5AB61C1E939
:103B6000002307F5AB61C1E90023D7F8C437184635
:103B70004FEAE071D7F8DC371A464FEAE27302FBEE
:103B800001F500FB03F42C44A0FB0223E1180B46D3
:103B900007F5AA61C1E9002307F5AA61C1E900237D
:103BA000D7F8283818464FEAE071D7F8D8371A46C0
:103BB0004FEAE27302FB01F500FB03F42C44A0FB87
:103BC0000223E1180B4607F5A961C1E9002307F5B7
:103BD000A961C1E90023D7F8C43718464FEAE0715C
:103BE000D7F8D4371A464FEAE27302FB01F500FB1F
:103BF00003F42C44A0FB0223E1180B4607F5A8614F
:103C0000C1E9002307F5A861C1E90023D7F82438EA
:103C100018464FEAE071D7F81C381A464FEAE273AB
:103C200002FB01F500FB03F42C44A0FB0223E11886
:103C30000B4607F5A761C1E9002307F5A761C1E9B4
:103C40000023D7F8243818464FEAE071D7F818381F
:103C50001A464FEAE27302FB01F500FB03F42C4421
:103C6000A0FB0223E1180B4607F5A661C1E900237A
:103C700007F5A661C1E90023D7F8243818464FEAB2
:103C8000E071D7F8F0371A464FEAE27302FB01F50C
:103C900000FB03F42C44A0FB0223E1180B4607F5BC
:103CA000A561C1E9002307F5A561C1E90023D7F8A3
:103CB000243818464FEAE071D7F8EC371A464FEA35
:103CC000E27302FB01F500FB03F42C44A0FB02238A
:103CD000E1180B4607F5A461C1E9002307F5A461CB
:103CE000C1E90023D7F8243818464FEAE071D7F825
:103CF000E8371A464FEAE27302FB01F500FB03F4D2
:103D00002C44A0FB0223E1180B4607F5A361C1E98F
:103D1000002307F5A361C1E90023D7F8243818462A
:103D20004FEAE071D7F8E4371A464FEAE27302FB34
:103D300001F500FB03F42C44A0FB0223E1180B4621
:103D400007F5A261C1E9002307F5A261C1E90023DB
:103D5000D7F8243818464FEAE071D7F8E0371A460A
:103D60004FEAE27302FB01F500FB03F42C44A0FBD5
:103D70000223E1180B4607F5A161C1E9002307F50D
:103D8000A161C1E90023D7F8243818464FEAE07151
:103D9000D7F8DC371A464FEAE27302FB01F500FB65
:103DA00003F42C44A0FB0223E1180B4607F5A061A5
:103DB000C1E9002307F5A061C1E90023D7F8243841
:103DC00018464FEAE071D7F8D8371A464FEAE2733F
:103DD00002FB01F500FB03F42C44A0FB0223E118D5
:103DE0000B4607F59F61C1E9002307F59F61C1E913
:103DF0000023D7F8243818464FEAE071D7F8D437B3
:103E00001A464FEAE27302FB01F500FB03F42C446F
:103E1000A0FB0223E1180B4607F59E61C1E90023D0
:103E200007F59E61C1E90023D7F8203818464FEA0C
:103E3000E071D7F81C381A464FEAE27302FB01F52D
:103E400000FB03F42C44A0FB0223E1180B4607F50A
:103E50009D61C1E9002307F59D61C1E90023D7F801
:103E6000C03718464FEAE071D7F8F4371A464FEAE0
:103E7000E27302FB01F500FB03F42C44A0FB0223D8
:103E8000E1180B4607F59C61C1E9002307F59C6129
:103E9000C1E90023D7F8203818464FEAE071D7F877
:103EA000F0371A464FEAE27302FB01F500FB03F418
:103EB0002C44A0FB0223E1180B4607F59B61C1E9E6
:103EC000002307F59B61C1E90023D7F8C0371846E6
:103ED0004FEAE071D7F8EC371A464FEAE27302FB7B
:103EE00001F500FB03F42C44A0FB0223E1180B4670
:103EF00007F59A61C1E9002307F59A61C1E900233A
:103F0000D7F8203818464FEAE071D7F8E8371A4654
:103F10004FEAE27302FB01F500FB03F42C44A0FB23
:103F20000223E1180B4607F59961C1E9002307F563
:103F30009961C1E90023D7F8C03718464FEAE0710C
:103F4000D7F8E4371A464FEAE27302FB01F500FBAB
:103F500003F42C44A0FB0223E1180B4607F59861FB
:103F6000C1E9002307F59861C1E90023D7F820389B
:103F700018464FEAE071D7F8E0371A464FEAE27385
:103F800002FB01F500FB03F42C44A0FB0223E11823
:103F90000B4607F59761C1E9002307F59761C1E971
:103FA0000023D7F8C03718464FEAE071D7F8DC375E
:103FB0001A464FEAE27302FB01F500FB03F42C44BE
:103FC000A0FB0223E1180B4607F59661C1E9002327
:103FD00007F59661C1E90023D7F8203818464FEA63
:103FE000E071D7F8D8371A464FEAE27302FB01F5C1
:103FF00000FB03F42C44A0FB0223E1180B4607F559
:104000009561C1E9002307F59561C1E90023D7F85F
:10401000C03718464FEAE071D7F8D4371A464FEA4E
:10402000E27302FB01F500FB03F42C44A0FB022326
:10403000E1180B4607F59461C1E9002307F5946187
:10404000C1E9002307F5F763D3E9000107F5E4634D
:10405000D3E900238418C7F8E84341EB0303C7F80A
:10406000EC3307F5DB63D3E90023D7E9FA452146B2
:104070008918C7F8E013294643EB0101C7F8E41398
:1040800007F5D263D3E90023D7E9F845214689181B
:10409000C7F8D813294643EB0101C7F8DC1307F52D
:1040A000C963D3E90023D7E9F64521468918C7F843
:1040B000D013294643EB0101C7F8D41307F5C063B9
:1040C000D3E90023D7E9F44521468918C7F8C81376
:1040D000294643EB0101C7F8CC1307F5B763D3E9D1
:1040E0000023D7E9F24521468918C7F8C0132946AD
:1040F00043EB0101C7F8C41307F5AE63D3E900230E
:10410000D7E9F04521468918C7F8B813294643EB8B
:104110000101C7F8BC1307F5A563D3E90023D7E96C
:10412000EE4521468918C7F8B013294643EB010133
:10413000C7F8B41307F59C63D3E90023D7E9EC452E
:1041400021465118C7F81011294643EB0101C7F861
:104150001411D7E9443407F59362C2E9003407F536
:10416000F663D3E9000107F5ED63D3E90023841872
:10417000C7F8A84341EB0303C7F8AC3307F5DA638C
:10418000D3E90023D7E9EA4521468918C7F8A013E7
:10419000294643EB0101C7F8A41307F5D163D3E91E
:1041A0000023D7E9E84521468918C7F8981329461E
:1041B00043EB0101C7F89C1307F5C863D3E900235B
:1041C000D7E9E64521468918C7F89013294643EBFD
:1041D0000101C7F8941307F5BF63D3E90023D7E9BA
:1041E000E44521468918C7F88813294643EB0101A5
:1041F000C7F88C1307F5B663D3E90023D7E9E24586
:1042000021468918C7F88013294643EB0101C7F8F6
:10421000841307F5AD63D3E90023D7E9E0452146D0
:104220008918C7F87813294643EB0101C7F87C13B6
:1042300007F5A463D3E90023D7E9DE4521468918B1
:10424000C7F87013294643EB0101C7F8741307F54B
:104250009B63D3E90023D7E9DC4521465118C7F811
:104260000811294643EB0101C7F80C11D7E9423484
:1042700007F59262C2E9003407F5F563D3E900015E
:1042800007F5EC63D3E900238418C7F8684341EBD2
:104290000303C7F86C3307F5E363D3E90023D7E9D9
:1042A000DA4521468918C7F86013294643EB010116
:1042B000C7F8641307F5D063D3E90023D7E9D845DD
:1042C00021468918C7F85813294643EB0101C7F85E
:1042D0005C1307F5C763D3E90023D7E9D645214628
:1042E0008918C7F85013294643EB0101C7F8541346
:1042F00007F5BE63D3E90023D7E9D44521468918E1
:10430000C7F84813294643EB0101C7F84C1307F5DA
:10431000B563D3E90023D7E9D24521468918C7F808
:104320004013294643EB0101C7F8441307F5AC637A
:10433000D3E90023D7E9D04521468918C7F83813B7
:10434000294643EB0101C7F83C1307F5A363D3E902
:104350000023D7E9CE4521468918C7F830132946EE
:1043600043EB0101C7F8341307F59A63D3E900233F
:10437000D7E9CC4521465118C7F80011294643EB2F
:104380000101C7F80411D7E9403407F59162C2E989
:10439000003407F5F463D3E9000107F5EB63D3E9D3
:1043A00000238418C7F8284341EB0303C7F82C33D4
:1043B00007F5E263D3E90023D7E9CA452146891806
:1043C000C7F82013294643EB0101C7F8241307F56A
:1043D000D963D3E90023D7E9C84521468918C7F82E
:1043E0001813294643EB0101C7F81C1307F5C663F0
:1043F000D3E90023D7E9C64521468918C7F8101329
:10440000294643EB0101C7F8141307F5BD63D3E94F
:104410000023D7E9C44521468918C7F8081329465F
:1044200043EB0101C7F80C1307F5B463D3E900238C
:10443000D7E9C24521468918C7F80013294643EB3E
:104440000101C7F8041307F5AB63D3E90023D7E9EB
:10445000C04521468918C7F8F812294643EB0101E7
:10446000C7F8FC1207F5A263D3E90023D7E9BE45DC
:1044700021468918C7F8F012294643EB0101C7F815
:10448000F41207F59963D3E90023D7E9BC45214627
:104490005118C7F8F810294643EB0101C7F8FC1082
:1044A000D7E93E3407F59062C2E9003407F5F363BB
:1044B000D3E9000107F5EA63D3E900238418C7F8BC
:1044C000E84241EB0303C7F8EC3207F5E163D3E9B7
:1044D0000023D7E9BA4521468918C7F8E0122946D2
:1044E00043EB0101C7F8E41207F5D863D3E90023D1
:1044F000D7E9B84521468918C7F8D812294643EBB1
:104500000101C7F8DC1207F5CF63D3E90023D7E92F
:10451000B64521468918C7F8D012294643EB010158
:10452000C7F8D41207F5BC63D3E90023D7E9B44533
:1045300021468918C7F8C812294643EB0101C7F87C
:10454000CC1207F5B363D3E90023D7E9B24521467E
:104550008918C7F8C012294643EB0101C7F8C412F5
:1045600007F5AA63D3E90023D7E9B04521468918A6
:10457000C7F8B812294643EB0101C7F8BC1207F58A
:10458000A163D3E90023D7E9AE4521468918C7F8CE
:10459000B012294643EB0101C7F8B41207F598633E
:1045A000D3E90023D7E9AC4521465118C7F8F010EC
:1045B000294643EB0101C7F8F410D7E93C3407F56D
:1045C0008F62C2E9003407F5F263D3E9000107F511
:1045D000E963D3E900238418C7F8A84241EB030339
:1045E000C7F8AC3207F5E063D3E90023D7E9AA4561
:1045F00021468918C7F8A012294643EB0101C7F8E4
:10460000A41207F5D763D3E90023D7E9A8452146CB
:104610008918C7F89812294643EB0101C7F89C1284
:1046200007F5CE63D3E90023D7E9A64521468918CB
:10463000C7F89012294643EB0101C7F8941207F519
:10464000C563D3E90023D7E9A44521468918C7F8F3
:104650008812294643EB0101C7F88C1207F5B263B3
:10466000D3E90023D7E9A24521468918C7F880126B
:10467000294643EB0101C7F8841207F5A963D3E982
:104680000023D7E9A04521468918C7F878122946A2
:1046900043EB0101C7F87C1207F5A063D3E90023BF
:1046A000D7E99E4521468918C7F87012294643EB81
:1046B0000101C7F8741207F59763D3E90023D7E91E
:1046C0009C4521465118C7F8E810294643EB0101E3
:1046D000C7F8EC10D7E93A3407F58E62C2E9003426
:1046E00007F5F163D3E9000107F5E863D3E9002397
:1046F0008418C7F8684241EB0303C7F86C3207F52A
:10470000DF63D3E90023D7E99A4521468918C7F822
:104710006012294643EB0101C7F8641207F5D6631E
:10472000D3E90023D7E9984521468918C7F85812DC
:10473000294643EB0101C7F85C1207F5CD63D3E9C5
:104740000023D7E9964521468918C7F85012294613
:1047500043EB0101C7F8541207F5C463D3E9002302
:10476000D7E9944521468918C7F84812294643EBF2
:104770000101C7F84C1207F5BB63D3E90023D7E961
:10478000924521468918C7F84012294643EB01019A
:10479000C7F8441207F5A863D3E90023D7E9904589
:1047A00021468918C7F83812294643EB0101C7F89A
:1047B0003C1207F59F63D3E90023D7E98E452146D4
:1047C0008918C7F83012294643EB0101C7F83412A3
:1047D00007F59663D3E90023D7E98C4521465118A4
:1047E000C7F8E010294643EB0101C7F8E410D7E908
:1047F000383407F58D62C2E9003407F5F063D3E978
:10480000000107F5E763D3E900238418C7F82842BD
:1048100041EB0303C7F82C3207F5DE63D3E900232D
:10482000D7E98A4521468918C7F82012294643EB63
:104830000101C7F8241207F5D563D3E90023D7E9AE
:10484000884521468918C7F81812294643EB01010B
:10485000C7F81C1207F5CC63D3E90023D7E98645D6
:1048600021468918C7F81012294643EB0101C7F801
:10487000141207F5C363D3E90023D7E98445214621
:104880008918C7F80812294643EB0101C7F80C1232
:1048900007F5BA63D3E90023D7E982452146891891
:1048A000C7F80012294643EB0101C7F8041207F5C7
:1048B000B163D3E90023D7E9804521468918C7F8B9
:1048C000F811294643EB0101C7F8FC1107F59E6377
:1048D000D3E90023D7E97E4521468918C7F8F011AE
:1048E000294643EB0101C7F8F41107F59563D3E9B5
:1048F0000023D7E97C4521465118C7F8D81029462E
:1049000043EB0101C7F8DC10D7E9363407F58C62B8
:10491000C2E9003407F5EF63D3E9000107F5E66368
:10492000D3E900238418C7F8E84141EB0303C7F833
:10493000EC3107F5DD63D3E90023D7E97A45214659
:104940008918C7F8E011294643EB0101C7F8E411C3
:1049500007F5D463D3E90023D7E9784521468918C0
:10496000C7F8D811294643EB0101C7F8DC1107F558
:10497000CB63D3E90023D7E9764521468918C7F8E8
:10498000D011294643EB0101C7F8D41107F5C263E2
:10499000D3E90023D7E9744521468918C7F8C8111F
:1049A000294643EB0101C7F8CC1107F5B963D3E9F8
:1049B0000023D7E9724521468918C7F8C011294656
:1049C00043EB0101C7F8C41107F5B063D3E9002335
:1049D000D7E9704521468918C7F8B811294643EB35
:1049E0000101C7F8BC1107F5A763D3E90023D7E994
:1049F0006E4521468918C7F8B011294643EB0101DD
:104A0000C7F8B41107F59463D3E90023D7E96C45DF
:104A100021465118C7F8D010294643EB0101C7F8C9
:104A2000D410D7E9343407F58B62C2E9003407F5B6
:104A3000EE63D3E9000107F5E563D3E900238418A9
:104A4000C7F8A84141EB0303C7F8AC3107F5DC63B5
:104A5000D3E90023D7E96A4521468918C7F8A01190
:104A6000294643EB0101C7F8A41107F5D363D3E945
:104A70000023D7E9684521468918C7F898112946C7
:104A800043EB0101C7F89C1107F5CA63D3E9002382
:104A9000D7E9664521468918C7F89011294643EBA6
:104AA0000101C7F8941107F5C163D3E90023D7E9E1
:104AB000644521468918C7F88811294643EB01014E
:104AC000C7F88C1107F5B863D3E90023D7E962452D
:104AD00021468918C7F88011294643EB0101C7F820
:104AE000841107F5AF63D3E90023D7E96045214678
:104AF0008918C7F87811294643EB0101C7F87C11E2
:104B000007F5A663D3E90023D7E95E452146891856
:104B1000C7F87011294643EB0101C7F8741107F576
:104B20009D63D3E90023D7E95C4521465118C7F8B6
:104B3000C810294643EB0101C7F8CC10D7E932343D
:104B400007F58A62C2E9003407F59363D3E90023CD
:104B500012F1007843F1000907F589614FF0000276
:104B60004FF000034FEA986242EA89124FEAA963C4
:104B7000C1E9002307F5896307F59262D2E90001D4
:104B8000D3E900238418C7F8C04041EB0303C7F8FA
:104B9000C430D7E9303407F59262C2E9003407F532
:104BA0008963D3E900234FF000004FF0000199061C
:104BB00041EA9211900607F59363D3E90023141A92
:104BC000C7F8B84063EB0103C7F8BC30D7E92E340F
:104BD00007F59362C2E9003407F58F63D3E9002338
:104BE00012F1007A43F1000B07F588614FF00002E3
:104BF0004FF000034FEA9A6242EA8B124FEAAB632E
:104C0000C1E9002307F5886307F58E62D2E9000148
:104C1000D3E900238418C7F8B04041EB0303C7F879
:104C2000B430D7E92C3407F58E62C2E9003407F5B9
:104C30008863D3E900234FF000004FF0000199068C
:104C400041EA9211900607F58F63D3E90023141A05
:104C5000C7F8A84063EB0103C7F8AC30D7E92A34A2
:104C600007F58F62C2E9003407F59263D3E90023A8
:104C700012F18071C7F8681143F10003C7F86C3175
:104C800007F587614FF000024FF00003D7E95A455E
:104C90002046420E284642EAC01228464316C1E981
:104CA000002307F5876307F59162D2E90001D3E994
:104CB00000238418C7F8A04041EB0303C7F8A430D1
:104CC000D7E9283407F59162C2E9003407F5876314
:104CD000D3E900234FF000004FF00001590641EAEC
:104CE000D211500607F59263D3E90023141AC7F8CE
:104CF000984063EB0103C7F89C30D7E9263407F5E9
:104D00009262C2E9003407F58E63D3E9002312F101
:104D10008071C7F8601143F10003C7F8643107F5EB
:104D200086614FF000024FF00003D7E95845204656
:104D3000420E284642EAC01228464316C1E9002323
:104D400007F5866307F58D62D2E90001D3E90023F8
:104D50008418C7F8904041EB0303C7F89430D7E9B3
:104D6000243407F58D62C2E9003407F58663D3E980
:104D700000234FF000004FF00001590641EAD21124
:104D8000500607F58E63D3E90023141AC7F888404C
:104D900063EB0103C7F88C30D7E9223407F58E6244
:104DA000C2E9003407F59163D3E9002312F10071E1
:104DB000C7F8581143F10003C7F85C3107F5856166
:104DC0004FF000024FF00003D7E956452046820E0F
:104DD000284642EA801228468316C1E9002307F5D7
:104DE000856307F59062D2E90001D3E900238418B6
:104DF000C7F8804041EB0303C7F88430D7E920347B
:104E000007F59062C2E9003407F58563D3E9002312
:104E10004FF000004FF00001990641EA9211900610
:104E200007F59163D3E90023141ABC6763EB010310
:104E3000FB67D7E91E3407F59162C2E9003407F534
:104E40008D63D3E9002312F10071C7F8501143F1CB
:104E50000003C7F8543107F584614FF000024FF0AA
:104E60000003D7E954452046820E284642EA8012C4
:104E700028468316C1E9002307F5846307F58C6291
:104E8000D2E90001D3E9002384183C6741EB030316
:104E90007B67D7E91C3407F58C62C2E9003407F55B
:104EA0008463D3E900234FF000004FF0000199061E
:104EB00041EA9211900607F58D63D3E90023141A95
:104EC000BC6663EB0103FB66D7E91A3407F58D6214
:104ED000C2E9003407F59063D3E9002312F1807131
:104EE000C7F8481143F10003C7F84C3107F5836157
:104EF0004FF000024FF00003D7E952452046420E22
:104F0000284642EAC01228464316C1E9002307F5A5
:104F1000836307F58F62D2E90001D3E90023841887
:104F20003C6641EB03037B66D7E9183407F58F62D3
:104F3000C2E9003407F58363D3E900234FF0000092
:104F40004FF00001590641EAD211500607F590636F
:104F5000D3E90023141ABC6563EB0103FB65D7E9B1
:104F6000163407F59062C2E9003407F58C63D3E983
:104F7000002312F18071C7F8401143F10003C7F814
:104F8000443107F582614FF000024FF00003D7E98A
:104F900050452046420E284642EAC0122846431693
:104FA000C1E9002307F5826307F58B62D2E90001AE
:104FB000D3E9002384183C6541EB03037B65D7E903
:104FC000143407F58B62C2E9003407F58263D3E934
:104FD00000234FF000004FF00001590641EAD211C2
:104FE000500607F58C63D3E90023141ABC6463EB05
:104FF0000103FB64D7E9123407F58C62C2E900347F
:1050000007F58F63D3E9002312F10071C7F8381157
:1050100043F10003C7F83C3107F588614FF0000207
:105020004FF00003D7E94E452046820E284642EA5B
:10503000801228468316C1E9002307F5886307F527
:105040008E62D2E90001D3E9002384183C6441EB6D
:1050500003037B64D7E9103407F58E62C2E900349C
:1050600007F58863D3E900234FF000004FF00001FB
:10507000990641EA9211900607F58F63D3E9002360
:10508000141ABC6363EB0103FB63D7E90E3407F525
:105090008F62C2E9003407F58B63D3E9002312F174
:1050A0000071C7F8301143F10003C7F8343107F538
:1050B00081614FF000024FF00003D7E94C452046D4
:1050C000820E284642EA801228468316C1E9002350
:1050D00007F5816307F58A62D2E90001D3E900236D
:1050E00084183C6341EB03037B63D7E90C3407F579
:1050F0008A62C2E9003407F58163D3E900234FF0E7
:1051000000004FF00001990641EA9211900607F560
:105110008B63D3E90023141ABC6263EB0103FB62C7
:10512000D7E90A3407F58B62C2E9003407F58A63D0
:10513000D3E9002312F18071C7F8281143F100036D
:10514000C7F82C3107F580614FF000024FF00003E3
:10515000D7E94A452046420E284642EAC012284670
:105160004316C1E9002307F58063D3E900452246D1
:105170002B464FF000004FF00001D90041EA527178
:10518000D00002460B46121945EB03039118396211
:105190005B417B62D7E908231119C7F820116B41E5
:1051A000C7F8243107F59363D3E90023D7E94845CD
:1051B00021465118B961294643EB0101F961D7E94C
:1051C000063407F59362C2E9003407F58063D3E93A
:1051D00000014FF000024FF000034B0643EAD013EA
:1051E000420607F58A61D1E90001841A3C6161EB4E
:1051F00003037B61D7E9043407F58A62C2E900340E
:1052000007F59363D3E9002312F10071C7F8181171
:1052100043F10003C7F81C3107F589614FF0000224
:105220004FF00003D7E946452046820E284642EA61
:10523000801228468316C1E9002307F5896307F524
:105240009262D2E90001D3E900238418BC6041EBEB
:105250000303FB60D7E9023407F59262C2E9003428
:1052600007F58963D3E900014FF000024FF0000316
:105270008B0643EA9013820607F59361D1E900019A
:10528000841A3C6061EB03037B60D7E9003407F5C7
:105290009362C2E9003407F593631A6807F57F73D8
:1052A0001B681A6007F57F731B68043307F5926269
:1052B00012681A6007F57F731B68083307F591625F
:1052C00012681A6007F57F731B680C3307F590624C
:1052D00012681A6007F57F731B68103307F58F6239
:1052E00012681A6007F57F731B68143307F58E6226
:1052F00012681A6007F57F731B68183307F58D6213
:1053000012681A6007F57F731B681C3307F58C62FF
:1053100012681A6007F57F731B68203307F58B62EC
:1053200012681A6007F57F731B68243307F58A62D9
:1053300012681A6000BF07F64C07BD46BDE8B00F03
:10534000704780B497B000AF786039603B681B68E5
:105350007B653B685B683B653B689B68FB643B68BF
:10536000DB68BB643B681B697B643B685B693B64CF
:105370003B689B69FB633B68DB69BB633B681B6AFB
:105380007B633B685B6A3B637B6D5B42FB623B6DAF
:105390005B42BB62FB6C5B427B62BB6C5B423B6211
:1053A0007B6C5B42FB613B6C5B42BB61FB6B5B42BA
:1053B0007B61BB6B5B423B617B6B5B42FB603B6B2E
:1053C0005B42BB607B68FA6A1A607B680433BA6A26
:1053D0001A607B6808337A6A1A607B680C333A6A11
:1053E0001A607B681033FA691A607B681433BA69F3
:1053F0001A607B6818337A691A607B681C333A69D3
:105400001A607B682033FA681A607B682433BA68B4
:105410001A6000BF5C37BD465DF8047B704780B5FD
:10542000A2B000AF7860396007F15C0339681846B4
:1054300000F09BF90123C7F884300CE007F15C020F
:1054400007F15C031146184600F08FF9D7F8843055
:105450000133C7F88430D7F88430002BEEDD07F134
:105460005C0207F134031146184600F07EF901236F
:10547000C7F884300CE007F1340207F13403114619
:10548000184600F072F9D7F884300133C7F8843039
:10549000D7F88430012BEEDD07F1340207F1340335
:1054A00039681846FDF752FA07F1340207F15C013A
:1054B00007F15C031846FDF749FA07F15C0207F1B2
:1054C0005C031146184600F050F90123C7F88430F8
:1054D0000CE007F15C0207F15C031146184600F08E
:1054E00044F9D7F884300133C7F88430D7F88430D2
:1054F000002BEEDD07F15C0207F1340107F15C03DC
:105500001846FDF723FA07F15C0207F13403114650
:10551000184600F02AF90123C7F884300CE007F19F
:10552000340207F134031146184600F01EF9D7F88B
:1055300084300133C7F88430D7F88430042BEEDD93
:1055400007F15C0207F1340107F15C031846FDF72F
:10555000FDF907F15C0207F134031146184600F02B
:1055600004F90123C7F884300CE007F1340207F195
:1055700034031146184600F0F8F8D7F884300133A8
:10558000C7F88430D7F88430092BEEDD07F15C02D0
:1055900007F1340107F134031846FDF7D7F907F195
:1055A000340207F10C031146184600F0DEF801231F
:1055B000C7F884300CE007F10C0207F10C03114628
:1055C000184600F0D2F8D7F884300133C7F8843099
:1055D000D7F88430132BEEDD07F1340207F10C010C
:1055E00007F134031846FDF7B1F907F1340207F16A
:1055F00034031146184600F0B8F80123C7F8843088
:105600000CE007F1340207F134031146184600F0AC
:10561000ACF8D7F884300133C7F88430D7F8843039
:10562000092BEEDD07F15C0207F1340107F15C03A1
:105630001846FDF78BF907F15C0207F134031146B8
:10564000184600F092F80123C7F884300CE007F107
:10565000340207F134031146184600F086F8D7F8F3
:1056600084300133C7F88430D7F88430312BEEDD35
:1056700007F15C0207F1340107F134031846FDF726
:1056800065F907F1340207F10C031146184600F0E2
:105690006CF80123C7F884300CE007F10C0207F125
:1056A0000C031146184600F060F8D7F88430013337
:1056B000C7F88430D7F88430632BEEDD07F134026D
:1056C00007F10C0107F134031846FDF73FF907F124
:1056D000340207F134031146184600F046F801235E
:1056E000C7F884300CE007F1340207F134031146A7
:1056F000184600F03AF8D7F884300133C7F8843000
:10570000D7F88430312BEEDD07F15C0207F134016C
:1057100007F15C031846FDF719F907F15C0207F180
:105720005C031146184600F020F80123C7F88430C6
:105730000CE007F15C0207F15C031146184600F02B
:1057400014F8D7F884300133C7F88430D7F88430A0
:10575000012BEEDD07F15C033A6819467868FDF726
:10576000F5F800BF8837BD4680BD2DE9B00FADF21A
:105770004C5D00AF07F52373186007F522731960BD
:1057800007F522731B681B68C7F8443507F52273B9
:105790001B685B68C7F8403507F522731B689B6878
:1057A000C7F83C3507F522731B68DB68C7F8383546
:1057B00007F522731B681B69C7F8343507F5227398
:1057C0001B685B69C7F8303507F522731B689B6956
:1057D000C7F82C3507F522731B68DB69C7F8283535
:1057E00007F522731B681B6AC7F8243507F5227377
:1057F0001B685B6AC7F82035D7F844355B00C7F8EB
:105800001C35D7F840355B00C7F81835D7F83C355C
:105810005B00C7F81435D7F838355B00C7F810358A
:10582000D7F834355B00C7F80C35D7F830355B0056
:10583000C7F80835D7F82C355B00C7F80435D7F81A
:1058400028355B00C7F80035D7F83025262303FB41
:1058500002F3C7F8FC34D7F82C251346DB001344B9
:105860005B001344C7F8F834D7F82825262303FB38
:1058700002F3C7F8F434D7F824251346DB001344A9
:105880005B001344C7F8F034D7F82025262303FB28
:1058900002F3C7F8EC34D7F8443518464FEAE07104
:1058A000D7F844351A464FEAE27302FB01F500FBD4
:1058B00003F42C44A0FB0223E1180B4607F59C617E
:1058C000C1E9002307F59C61C1E90023D7F81C3525
:1058D00018464FEAE071D7F840351A464FEAE273AE
:1058E00002FB01F500FB03F42C44A0FB0223E118AA
:1058F0000B4607F59B61C1E9002307F59B61C1E9F0
:105900000023D7F81C3518464FEAE071D7F83C352C
:105910001A464FEAE27302FB01F500FB03F42C4444
:10592000A0FB0223E1180B4607F59A61C1E90023A9
:1059300007F59A61C1E90023D7F81C3518464FEAEC
:10594000E071D7F838351A464FEAE27302FB01F5E9
:1059500000FB03F42C44A0FB0223E1180B4607F5DF
:105960009961C1E9002307F59961C1E90023D7F8DE
:105970001C3518464FEAE071D7F834351A464FEA1D
:10598000E27302FB01F500FB03F42C44A0FB0223AD
:10599000E1180B4607F59861C1E9002307F5986106
:1059A000C1E90023D7F81C3518464FEAE071D7F853
:1059B00030351A464FEAE27302FB01F500FB03F4AF
:1059C0002C44A0FB0223E1180B4607F59761C1E9BF
:1059D000002307F59761C1E90023D7F81C35184665
:1059E0004FEAE071D7F82C351A464FEAE27302FB12
:1059F00001F500FB03F42C44A0FB0223E1180B4645
:105A000007F59661C1E9002307F59661C1E9002316
:105A1000D7F81C3518464FEAE071D7F828351A46F2
:105A20004FEAE27302FB01F500FB03F42C44A0FBF8
:105A30000223E1180B4607F59561C1E9002307F53C
:105A40009561C1E90023D7F81C3518464FEAE0718B
:105A5000D7F824351A464FEAE27302FB01F500FB42
:105A600003F42C44A0FB0223E1180B4607F59461D4
:105A7000C1E9002307F59461C1E90023D7F81C357B
:105A800018464FEAE071D7F820351A464FEAE2731C
:105A900002FB01F500FB03F42C44A0FB0223E118F8
:105AA0000B4607F59361C1E9002307F59361C1E94E
:105AB0000023D7F8183518464FEAE071D7F840357B
:105AC0001A464FEAE27302FB01F500FB03F42C4493
:105AD000A0FB0223E1180B4607F59261C1E9002300
